:020000001528C1
:100008007E14803120007F08F1002100901E102806
:100018002000901E1028572371082000FF007E1032
:1000280009001628FB01C001C1017E1020001C2810
:1000380000302000B9000030B8000030B7000030B0
:10004800B6000030BD000530BC00A030BB00003059
:10005800BA001D234E30F2000330F30048238B17FB
:100068000B178030320098002000BD1B622800303A
:10007800F5000030F4000030F3009030F2003A0848
:10008800A6003B08A7003C08A8003D08A9000830C6
:10009800AA00A937A80CA70CA60CAA0B4D2829085A
:1000A800F9002808F8002708F7002608F600F621C6
:1000B80073082000B3007208B20092280030F500DF
:1000C8000030F4000030F3009030F2003A08A60047
:1000D8003B08A7003C08A8003D08A9000830AA0072
:1000E800A937A80CA70CA60CAA0B74280030260464
:1000F800F60000302704F70000302804F800FF302D
:100108002904F900642273082000B3007208B200C1
:10011800B31F92289030B2070030B33DB401B50147
:100128003508803AA60080302602031D9D289030AD
:10013800340203180B29200034083207BE003508A2
:10014800333DBF003F08803AA60080302602031DD9
:10015800AF2890303E02031CB62870302000BE073E
:10016800FF30BF3D20003F08803AA60080302602BD
:10017800031DC02830303E020318CF2820003E035C
:10018800FF3A303EA6002608AB003E08A600260827
:10019800AC00AD01F32820003F08803AA60080306B
:1001A8002602031DD92860303E020318E6282000E5
:1001B800AB013E03FF3A603EA6002608AC003E08AD
:1001C800D03EF02820003E08A03EA6002608AB003E
:1001D800AC013E03FF3A903EA6002608AD002C086D
:1001E8002F2320002B082F2320002D082F23013038
:1001F8002000B4070030B53D3508803AA6008030AD
:100208002602031D092990303402031C9F28FF3061
:10021800F500FF30F400DC30F300D830F2002000A5
:100228003D08F9003C08F8003B08F7003A08F600DA
:10023800742175082000B1007408B0007308AF007D
:100248007208AE00B91B61293908031D3529380821
:10025800031D35293708031D352901303602031CD3
:10026800612936082E07A60037082F3DA700380851
:10027800303DA8003908313DA900A91B502929089B
:10028800031D61292808031D61292708031D612909
:1002980001302602031861290030B9000030B80087
:1002A8000030B7000030B6000030BD000530BC009B
:1002B800A030BB000030BA0071292E08B6072F08FD
:1002C800B73D3008B83D3108B93D3608BA07370898
:1002D800BB3D3808BC3D3908BD3D143014233828CF
:1002E8002000A101F51F8529F209F309F409F50990
:1002F800F20A0319F30A0319F40A0319F50AA1010A
:10030800A10AF91F9629F609F709F809F909F60A61
:100318000319F70A0319F80A0319F90A0130FA0050
:100328007A08A1060030A5000030A4000030A30020
:100338000030A20075087404730472040319DF29DD
:10034800A001A00AF51BB4290130F235F30DF40D14
:10035800F50D890BA9290130FA007A08A007A6290A
:100368000130A235A30DA40DA50D890BB52975087B
:100378007902031DC92974087802031DC929730865
:100388007702031DC92972087602031CD429720852
:10039800F6027308F73B7408F83B7508F93B22141A
:1003A8000130F536F40CF30CF20C890BD529013029
:1003B800A002031DB42921080319ED29A209A309E4
:1003C800A409A509A20A0319A30A0319A40A03196F
:1003D800A50A2508F5002408F4002308F3002208DC
:1003E800F20008002000A101F91F072AF609F70901
:1003F800F809F909F60A0319F70A0319F80A03199B
:10040800F90AA101A10AF51F142AF209F309F4094E
:10041800F509F20A0319F30A0319F40A0319F50A8C
:10042800750874047304720403194D2AA001A00A04
:10043800F51B2A2A0130F235F30DF40DF50D890B61
:100448001F2A0130FA007A08A0071C2A75087902C9
:10045800031D382A74087802031D382A73087702A6
:10046800031D382A72087602031C422A7208F60213
:100478007308F73B7408F83B7508F93B0130F5360B
:10048800F40CF30CF20C890B432A0130A002031D73
:100498002A2A210803195B2AF609F709F809F90934
:1004A800F60A0319F70A0319F80A0319F90A790869
:1004B800F5007808F4007708F3007608F2000800E1
:1004C800750874047304720403199E2A2000A0019D
:1004D800A00AF51B7B2A0130F235F30DF40DF50D5A
:1004E800890B702A0130FA007A08A0076D2A75086E
:1004F8007902031D892A74087802031D892A730862
:100508007702031D892A72087602031C932A72084F
:10051800F6027308F73B7408F83B7508F93B01309D
:10052800F536F40CF30CF20C890B942A0130A00276
:10053800031D7B2A7908F5007808F4007708F30092
:100548007608F200080022008C0121008C012300AB
:100558008C0124008C0125008C0100308B1B01309C
:10056800F2008B1355303C008F00AA308F000F101B
:100578003D001108E039183891003C002008E039A6
:100588000138A0002108E0390338A1003D00150812
:10059800E0390438950055303C008F00AA308F00B0
:1005A8000F14721CD92A8B1708008B1308003E0001
:1005B80091011030920013309300123094001030E3
:1005C80095000A30960020309700980199018030F4
:1005D800900008002000970145309800F9309600F7
:1005E80095019012210090166130F2000330F3005B
:1005F80048235E230800200040084104031908002E
:1006080041088A0040080A00833108003200990135
:100618009B019D0106309F009E011C180800112BAC
:10062800F20072087B0203181B2B6300152BFB01D9
:100638000800A7220A2353233823DB22402326233A
:10064800EE220800083020009F0004309E009D0123
:1006580091105B230800F2002400951372089100A2
:10066800141C342B11080800403024009400233057
:10067800950009309200080080302C009900023063
:10068800980040309700080073082000C1007208E5
:10069800C00008000130F0007008FB0708001630A1
:1006A80021009700080020009012FF220800200077
:0C06B8001F15080020009717080008001C
:020000040001F9
:08000E008CFFF2FFFFDFFFFF92
:00000001FF
